:100000000C940D060C94BA060C942A060C942A063D
:100010000C942A060C942A060C942A060C942A06A0
:100020000C942A060C942A060C942A060C942A0690
:100030000C942A060C942A060C942A060C942A0680
:100040000C944E0E0C942A060C942A060C942A0644
:100050000C942A060C942A060C942A060C942A0660
:100060000C942A060C942A060C942A060C942A0650
:100070006B026A0262025A024F0245023B023A02D6
:10008000390238022E02240217020B02FF01FE0180
:10009000FD01FC01F101E501E401D801CB01CA0138
:1000A000C901BC01B701B601B501B401B301B20188
:1000B000A701A6019D01960195019401930192016A
:1000C0009101900185017C017B017A017901780120
:1000D000770176016D0166016501640163016201CA
:1000E0006101600159015201510150014F014E015E
:1000F0004D014C0140013F01320123012201210148
:10010000170116011501140113011201110110014B
:1001100000000000000000414E494D4154494F4E3F
:1001200000000054484520434F4E54524F4C4C451C
:100130005200444F204E4F5420544F554348000026
:1001400043414C4942524154494E4700000000008F
:10015000000043484F53454E00534C49444552001C
:1001600000000000000043484F53454E004A4F59DD
:10017000535449434B000000000000003E534C49DB
:100180004445523C003E4A4F59535449434B3C006E
:10019000000000000000534C49444552004A4F59AA
:1001A000535449434B0000434F4E54524F4C4C451F
:1001B000520000000000004845524500494E53548B
:1001C00052554354494F4E53000000425554544F2A
:1001D0004E205354415254005052455353205249DB
:1001E00047485400004F4E20534F4C4F4E4F494408
:1001F00000504C4143452042414C4C000000003E21
:10020000414E494D4154494F4E3C003E43414C49BB
:1002100042524154453C003E434F4E54524F4C4C89
:1002200045523C003E32504C415945523C003E3113
:10023000504C415945523C00000000414E494D414F
:1002400054494F4E0043414C4942524154450043AA
:100250004F4E54524F4C4C45520032504C41594530
:10026000520031504C41594552000050494E4750C0
:100270004F4E4700000000000000000000065F5FD6
:10028000060000000007070007070000147F7F1426
:100290007F7F1400242E6B6B3A12000046663018E4
:1002A0000C666200307A4F5D377A4800040703001D
:1002B00000000000001C3E63410000000041633E5E
:1002C0001C000000082A3E1C1C3E2A0808083E3E6E
:1002D0000808000000A0E06000000000080808080E
:1002E0000808000000006060000000006030180C8A
:1002F000060301003E7F594D7F3E000042427F7F52
:1003000040400000627359496F660000226349490A
:100310007F360000181C16137F7F100027674545A5
:100320007D3900003C7E4B49793000000363711930
:100330000F070000367F49497F360000064F4969A4
:100340003F1E000000006C6C0000000000A0EC6C80
:10035000000000001824429924428100141414144F
:1003600014140000814224994224180002035159B8
:100370000F0600003E7F415D5D1F1E00FF3E000036
:1003800000000000FF083E0000000000FF08083EDB
:1003900000000000FF0808083E000000FF080808F1
:1003A000083E0000FF08080808083E00FF0808088B
:1003B0000808083E00000000000000003C7EFFFF2F
:1003C000FFFF7E3C0000000000003EFF0000000038
:1003D000003E08FF000000003E0808FF0000003E4D
:1003E000080808FF00003E08080808FF003E08084B
:1003F000080808FF3E080808080808FF0000000079
:1004000000000000000000000000000000000000EC
:1004100000000000000000000000000000000000DC
:1004200000000000000000000000000000000000CC
:1004300000000000000000000000000000000000BC
:1004400000000000000000000000000000000000AC
:10045000000000000000000000000000000000009C
:10046000000000000000000000000000000000008C
:1004700000000080000000000000000000000000FC
:10048000000000000000000000000000000000006C
:10049000000000000000000000000000000000005C
:1004A0000000000000000000030000000000000049
:1004B000F8000000000000000400000000440000FC
:1004C0004000000000C400FD7D000000417F7F105F
:1004D000386C440000417F7F400000007C7C0C1899
:1004E0000C7C78007C7C04047C780000387C4444DC
:1004F0007C38000084FCF8A4243C1800183C24A498
:10050000F8FC8400447C78441C180000485C545477
:100510007424000000043E7F442400003C7C4040E2
:100520003C7C40001C3C60603C1C00003C7C60301B
:10053000607C3C00446C3810386C44009CBCA0A02B
:10054000FC7C00004C64745C4C64000008083E773E
:100550004141000000000077770000004141773EF4
:10056000080800000203010302030100000000006C
:10057000005C00000C000C007C287C2858DC680023
:100580002410480028542840000C00000078840003
:100590008478000054385400107C10008040000023
:1005A000101010000040000060100C00385438009B
:1005B000487C40004864580044542C001C107C00C7
:1005C0005C5424003854240064140C0068542C003B
:1005D00048543800004800008048000010284400BB
:1005E00028282800442810000454080038445C00DF
:1005F000781478007C542800384428007C44380063
:100600007C5444007C140400384474007C107C004A
:10061000447C440020403C007C106C007C40400046
:100620007C187C0078103C00384438007C140800AA
:100630003844B8007C14680048542400047C04004A
:100640007C407C003C603C007C307C006C106C008A
:100650000C700C0064544C00007C44000C106000D2
:10066000447C00000804080080808000000408002A
:10067000304878007C4830003048480030487C00E2
:10068000306850001078140090A878007C08700042
:1006900050744000808074007C106800447C4000EE
:1006A000781078007808700030483000F828100082
:1006B0003048F8007810080050582800083C4800DE
:1006C00038407800384038007820780048304800BA
:1006D00098A078004868580010788400007C0000DA
:1006E00084781000080408040000000000000000E6
:1006F0005F000000000700070000147F147F140053
:10070000242A7F2A120023130864620036495522E6
:100710005000000503000000001C224100000041C1
:10072000221C0000082A1C2A080008083E080800AD
:100730000050300000000808080808000060600051
:1007400000002010080402003E5149453E000042CE
:100750007F4000004261514946002141454B310034
:100760001814127F10002745454539003C4A494975
:100770003000017109050300364949493600064930
:1007800049291E00003636000000005636000000E1
:10079000081C2A08080014141414140008082A1C41
:1007A0000800020151090600324979413E007E11DC
:1007B00011117E007F49494936003E4141412200E6
:1007C0007F4141221C007F49494941007F090901BD
:1007D00001003E41415132007F0808087F0000417E
:1007E0007F4100002040413F01007F08142241006A
:1007F0007F40404040007F0204027F007F040810D9
:100800007F003E4141413E007F09090906003E410B
:1008100051215E007F0919294600464949493100A6
:1008200001017F0101003F4040403F001F20402068
:100830001F007F2018207F00631408146300030446
:100840007804030061514945430000007F414100A5
:1008500002040810200041417F0000000402010250
:1008600004004040404040000001020400002054C9
:10087000545478007F4844443800384444442000AD
:10088000384444487F00385454541800087E090105
:100890000200081454543C007F080404780000440B
:1008A0007D4000002040443D0000007F10284400AF
:1008B00000417F4000007C04180478007C08040498
:1008C00078003844444438007C1414140800081498
:1008D00014187C007C080404080048545454200078
:1008E000043F444020003C4040207C001C2040202D
:1008F0001C003C4030403C004428102844000C5070
:1009000050503C004464544C440000083641000000
:1009100000007F00000000413608000002010302D1
:100920000100000000000000000000065F5F0600FC
:1009300000000007070007070000147F7F147F7F77
:100940001400242E6B6B3A120000466630180C66B9
:100950006200307A4F5D377A4800040703000000D8
:100960000000001C3E63410000000041633E1C008B
:100970000000082A3E1C1C3E2A0808083E3E0808C3
:10098000000000A0E0600000000008080808080857
:10099000000000006060000000006030180C0603DA
:1009A00001003E7F594D7F3E000042427F7F404024
:1009B0000000627359496F660000226349497F361F
:1009C0000000181C16137F7F1000276745457D39EE
:1009D00000003C7E4B4979300000036371190F071A
:1009E0000000367F49497F360000064F49693F1EA7
:1009F000000000006C6C0000000000A0EC6C000027
:100A00000000182442992442810014141414141470
:100A100000008142249942241800020351590F0614
:100A200000003E7F415D5D1F1E007C7E13137E7CB7
:100A30000000417F7F49497F36001C3E634141638E
:100A40002200417F7F41637F1C00417F7F495D41E0
:100A50006300417F7F491D0103001C3E63415173C8
:100A600072007F7F08087F7F000000417F7F410088
:100A70000000307040417F3F0100417F7F081C77BC
:100A80006300417F7F41406070007F7F060C067FDE
:100A90007F007F7F060C187F7F001C3E6341633E12
:100AA0001C00417F7F49090F06001E3F21717F5EB8
:100AB0000000417F7F19396F460026674D597B3210
:100AC000000003417F7F410300007F7F40407F7F24
:100AD00000001F3F60603F1F00007F7F3018307FA5
:100AE0007F0063771C081C776300074F78784F07F7
:100AF00000006773594D47637100007F7F414100DB
:100B000000000103060C183060000041417F7F00A7
:100B10000000080C0603060C08008080808080809E
:100B200080800000030704000000207454543C78C7
:100B30004000413F7F44447C3800387C44446C286A
:100B40000000307848493F7F4000387C54545C189E
:100B50000000487E7F490302000098BCA4A4F87CF2
:100B60000400417F7F08047C780000447D7D4000C4
:100B7000000040C484FD7D000000417F7F10386C80
:100B8000440000417F7F400000007C7C0C180C7CFE
:100B900078007C7C04047C780000387C44447C38F9
:100BA000000084FCF8A4243C1800183C24A4F8FCA1
:100BB0008400447C78441C180000485C545474241D
:100BC000000000043E7F442400003C7C40403C7C0C
:100BD00040001C3C60603C1C00003C7C6030607C41
:100BE0003C00446C3810386C44009CBCA0A0FC7CD9
:100BF00000004C64745C4C64000008083E7741417E
:100C0000000000000077770000004141773E0808AF
:100C10000000020301030203010011241FBECFEFF5
:100C2000D4E0DEBFCDBF12E0A0E0B1E0E2ECF9E23B
:100C300002C005900D92A832B107D9F722E0A8E2D0
:100C4000B2E001C01D92A534B207E1F70E940C0F7B
:100C50000C94DF140C9400008C9AF894EBE8F0E00C
:100C6000808180648083EAE8F0E080818160808315
:100C700080818860808381E090E0909387008093FA
:100C80008600789408950E942C060895CF93C82F6B
:100C90000E94AE0E60E074E08C2F80680E94B50E5A
:100CA00080E18A95F1F700C080E094E00E94B90EDF
:100CB00090E19A95F1F700C090E0CF9108950E94DD
:100CC000EE0E61E088E20E94CB0E65EB89E20E94A5
:100CD000CB0E63E48AE20E94CB0E60E08FE00E94BC
:100CE000CB0EF89485B7826085BF85B78E7F85BFB0
:100CF0008BB780648BBF789463E08BE20E94CB0E4D
:100D00000895FF920F931F93CF93DF93EC01088117
:100D10001981B8017695679576956795769567956B
:100D200081E30E94CB0E602F6295660F607E82E3A6
:100D30000E94CB0EFA806F2D6F7085E30E94CB0E60
:100D4000FF2079F08E010D5F1F4FD6E3DF0DC6E364
:100D5000F80161918F018C2F0E94CB0ECF5FCD13D4
:100D6000F7CF81E80E94DD0EDF91CF911F910F91A7
:100D7000FF9008951F920F920FB60F9211242F9398
:100D80003F934F935F936F937F938F939F93AF9313
:100D9000BF93EF93FF9381E08093280287E591E072
:100DA0009F938F930E94DE110F900F90FF91EF9110
:100DB000BF91AF919F918F917F916F915F914F9173
:100DC0003F912F910F900FBE0F901F901895CF92CB
:100DD000DF92EF92FF920F931F93CF93DF93CDB7E4
:100DE000DEB7C059D1400FB6F894DEBF0FBECDBFFD
:100DF0008E0107531F4FCE0101967C016E019FE6C5
:100E0000C91A9EEFD90A81E090E00E944606F801D7
:100E1000819391938F0180E090E00E944606F70154
:100E2000819391937F010C151D0569F764E670E0CD
:100E3000CE0187539F4F0E94510F8093340264E686
:100E400070E0CE0101960E94510F80933302C0578B
:100E5000DE4F0FB6F894DEBF0FBECDBFDF91CF914E
:100E60001F910F91FF90EF90DF90CF9008951F9307
:100E7000CF93DF9381E090E00E944606EC0180E092
:100E800090E00E9446069C01482F809134028C1706
:100E9000A8F48091340250913402DD27C81BD10997
:100EA00064E66C9FC0016D9F900D11246FEF70E0A0
:100EB000651B71090E94690FFB0118C08091340203
:100EC000C81790F48091340260913402DD27C81B6A
:100ED000D10954E65C9FC0015D9F900D112470E024
:100EE0000E94690FFB0102C0E0E0F0E08091330254
:100EF0008417A8F480913302409133023327281BD2
:100F0000310954E6529FC001539F900D11246FEF99
:100F100070E0641B71090E94690F9B0118C08091E9
:100F20003302481790F480913302609133023327E3
:100F3000281B310944E6429FC001439F900D1124B4
:100F400070E00E94690F9B0102C020E030E0BF0109
:100F5000C901DF91CF911F9108950E9437076E3C20
:100F6000EFEF7E0784F0633371057CF48E3C2FEF46
:100F700092076CF0C3976CF46E5C7F4F6536710519
:100F800050F080E0089580E0089581E0089582E0C7
:100F9000089583E0089584E00895CF93DF93CDB75B
:100FA000DEB72B970FB6F894DEBF0FBECDBF21E0A2
:100FB00030E03A83298393E09B836C838D8386B3EF
:100FC00081708E831F928F9385E691E09F938F931C
:100FD0000E94DE11CE0101960E9481060F900F90B3
:100FE0000F900F902B960FB6F894DEBF0FBECDBFBB
:100FF000DF91CF910895EF92FF921F93CF93DF93EC
:10100000CDB7DEB760970FB6F894DEBF0FBECDBF89
:101010000E94660C0F2EF0EAEF2EF0E0FF2EF02D6E
:1010200010E0812F0E94E30BF70165917491CE01CE
:1010300001960E94781168E070E0CE0101960E944E
:101040005D0D1F5F82E0E80EF11C183051F76096CD
:101050000FB6F894DEBF0FBECDBFDF91CF911F91C9
:10106000FF90EF900895EF92FF921F93CF93DF933D
:10107000CDB7DEB760970FB6F894DEBF0FBECDBF19
:101080000E94660C0F2EF0EBEF2EF0E0FF2EF02DFD
:1010900010E0812F0E94E30BF70165917491CE015E
:1010A00001960E94781168E070E0CE0101960E94DE
:1010B0005D0D1F5F82E0E80EF11C183051F782E0F1
:1010C0000E94E30BE4ECF0E065917491CE0101968F
:1010D0000E94781168E070E0CE0101960E945D0DDB
:1010E00060960FB6F894DEBF0FBECDBFDF91CF91F3
:1010F0001F91FF90EF900895CF93DF93CDB7DEB7A8
:101100006B970FB6F894DEBF0FBECDBF0E94660C82
:101110000F2EF0E9EF2EF0E0FF2EF02D10E0812FE2
:101120000E94E30BF70165917491CE0101960E9434
:10113000781168E070E0CE0101960E945D0D1F5F9E
:1011400082E0E80EF11C183051F7B09BFECF81E031
:1011500090E09A8B898B83E08B8B86B381708E8B2A
:10116000CE0141960E94810689E791E09F938F937B
:101170000E94DE110F900F900E9437070E94CD074A
:10118000FBCFEF92FF921F93CF93DF93CDB7DEB7E4
:1011900060970FB6F894DEBF0FBECDBF0E94660CFD
:1011A0000F2EF0EDEF2EF0E0FF2EF02D10E0812F4E
:1011B0000E94E30BF70165917491CE0101960E94A4
:1011C000781168E070E0CE0101960E945D0D1F5F0E
:1011D00022E0E20EF11C183051F78FEF93ED20E37F
:1011E000815090402040E1F700C00000A0913902FA
:1011F000B0913A02B0932A02A093290210922C02D5
:1012000010922B021296ED91FC9113971A968D91E4
:101210009C911B97099560960FB6F894DEBF0FBEA0
:10122000CDBFDF91CF911F91FF90EF900895EF9286
:10123000FF921F93CF93DF93CDB7DEB760970FB6C2
:10124000F894DEBF0FBECDBF0E94660C0F2EF0EEED
:10125000EF2EF0E0FF2EF02D10E0812F0E94E30B27
:10126000F70165917491CE0101960E94781168E0B2
:1012700070E0CE0101960E945D0D1F5F22E0E20E3C
:10128000F11C183051F78FEF93ED20E3815090401F
:101290002040E1F700C00000A0913902B0913A026D
:1012A000B0932A02A093290210922C0210922B02D2
:1012B0001296ED91FC9113971A968D919C911B9724
:1012C000099560960FB6F894DEBF0FBECDBFDF91D3
:1012D000CF911F91FF90EF900895EF92FF921F938F
:1012E000CF93DF93CDB7DEB760970FB6F894DEBF2C
:1012F0000FBECDBF0E94660C0F2EF0EFEF2EF0E078
:10130000FF2EF02D10E0812F0E94E30BF701659175
:101310007491CE0101960E94781168E070E0CE01D0
:1013200001960E945D0D1F5F22E0E20EF11C183055
:1013300051F78FEF93ED20E3815090402040E1F78B
:1013400000C00000A0913902B0913A02B0932A0285
:10135000A093290210922C0210922B021296ED916A
:10136000FC9113971A968D919C911B970995609605
:101370000FB6F894DEBF0FBECDBFDF91CF911F91A6
:10138000FF90EF900895AF92BF92CF92DF92EF92CD
:10139000FF920F931F93CF93DF938C017B015A0130
:1013A00069018EE090E00E94910FEC01198308839F
:1013B0001D821C821F821E82FB86EA86C7010E9454
:1013C000800D9D878C87BB82AA82D986C886F8014A
:1013D000668177816F5F7F4F660F771F848195816C
:1013E0000E94B210F8019583848326813781A90178
:1013F000440F551FFC01E40FF51FD183C0832F5FFD
:101400003F4FF80137832683CE01DF91CF911F91A3
:101410000F91FF90EF90DF90CF90BF90AF90089525
:10142000CF92DF92EF92FF921F93CF93DF93CDB7CE
:10143000DEB760970FB6F894DEBF0FBECDBF8EE06B
:1014400090E00E94910F6C018BE891E0F601938788
:101450008287158614861782168211821082138263
:1014600012821186108620E130E04CE758E065E9F1
:1014700071E0C6010E94C30928E130E04BEF57E05C
:101480006DE971E0C6010E94C30920E230E043E348
:1014900058E065EA71E0C6010E94C3097C0120E3BF
:1014A00030E041EC58E060EB71E00E94C30928E3B2
:1014B00030E047E159E069EB71E0C7010E94C309E0
:1014C00020E430E04DE659E060EC71E0C6010E9496
:1014D000C3090E94660C0F2EF0E7EF2EF0E0FF2EFE
:1014E000F02D10E0812F0E94E30BF70165917491BC
:1014F000CE0101960E94781168E070E0CE0101965D
:101500000E945D0D1F5FF2E0EF0EF11C173051F7E6
:1015100082E00E94E30BE4E8F0E065917491CE0173
:1015200001960E94781168E070E0CE0101960E9459
:101530005D0DD0922A02C092290260960FB6F894EF
:10154000DEBF0FBECDBFDF91CF911F91FF90EF9017
:10155000DF90CF9008950F931F93CF93DF93CDB774
:10156000DEB760970FB6F894DEBF0FBECDBF0E9406
:10157000AD07843009F4DAC02FEF87EE93E02150F5
:1015800080409040E1F700C000000E94AD0782302B
:1015900009F464C0833009F0C9C080912B02909196
:1015A0002C02181619060CF0C1C08E5F0E94E30BC6
:1015B0000BE212E0F80180818E5F0E942A0CE0911C
:1015C0002902F0912A020084F185E02D80912B02FE
:1015D00090912C02E80FF91FEE0FFF1FEC58FF4F00
:1015E00065917491CE0101960E94781168E070E0D7
:1015F000CE0101960E945D0DF80180818F5F0E94EF
:10160000E30BF80180818F5F0E942A0CE0912B028E
:10161000F0912C02A0912902B0912A0218968D9186
:101620009C911997E80FF91FEE0FFF1FEE57FF4F20
:1016300065917491CE0101960E94781168E070E086
:10164000CE0101960E945D0D80912B0290912C029B
:10165000019790932C0280932B0268C080912B02FB
:1016600090912C02E0912902F0912A022681378183
:1016700021503109821793070CF058C08E5F0E94E9
:10168000E30B0BE212E0F80180818E5F0E942A0CCE
:10169000E0912902F0912A020084F185E02D8091E9
:1016A0002B0290912C02E80FF91FEE0FFF1FEC5850
:1016B000FF4F65917491CE0101960E94781168E008
:1016C00070E0CE0101960E945D0DF80180818D5F72
:1016D0000E94E30BF80180818D5F0E942A0CE0914B
:1016E0002B02F0912C02A0912902B0912A021896A7
:1016F0008D919C911997E80FF91FEE0FFF1FEA5784
:10170000FF4F65917491CE0101960E94781168E0B7
:1017100070E0CE0101960E945D0D80912B029091A8
:101720002C02019690932C0280932B02B29934C024
:10173000E0912902F0912A02848195810097D9F0E5
:10174000E0912B02F0912C02EE0FFF1FE80FF91F22
:10175000A081B181B0932A02A093290210922C0299
:1017600010922B021296ED91FC9113971A968D917F
:101770009C911B970995FFEF23EC89E0F1502040E5
:101780008040E1F700C000008AEC91E09F938F93C6
:101790000E94DE110F900F9060960FB6F894DEBF96
:1017A0000FBECDBFDF91CF911F910F910895E091B2
:1017B0000801F091090190E29083E0910801F09115
:1017C000090180830895883048F089ED91E09F9366
:1017D0008F930E94DE110F900F90089590EB980F59
:1017E000E0910801F0910901908390E09093360216
:1017F00080933502089588234CF489ED91E09F93FE
:101800008F930E94DE110F900F900895282F2F7054
:10181000982F92959F70905FE0910801F0910901D7
:101820009083E0910801F0910901208390E090936A
:101830003802809337020895CF93C62F0E94E30B9E
:101840008C2F0E94FB0BCF91089560E080E00E94F6
:101850001C0C089560E00E941C0C80E090E0E09178
:101860000601F0910701E80FF91F108201968038F8
:101870009105A9F7089560E080E00E941C0C80E0CB
:101880000E94D70B80E090E0E0910601F091070103
:10189000E80FF91F10820196811524E09207A1F745
:1018A00060E084E00E941C0C80E090E0E091060182
:1018B000F0910701E80FF91F10820196811524E0CD
:1018C0009207A1F782E00E94D70B08950E94250C91
:1018D0000E943B0C82E00E94D70B08958052643036
:1018E000710509F470C01CF4672B89F00895663007
:1018F000710509F440C06830710509F0B3C020914A
:101900000A0130910B011216130654F0089520912C
:101910000A0130910B01121613060CF479C00895D8
:1019200090E0880F991F880F991F880F991F20E05A
:1019300030E0A5E3B2E0F901E80FF91FEE5DF64FE4
:1019400045915491E0910601F09107014083129670
:101950004D915C9113974F5F5F4F13965C934E933D
:1019600012972F5F3F4F40910A0150910B012417AE
:1019700035070CF3089590E09C01220F331F820F6E
:10198000931F880F991F20E030E0A5E3B2E0F90132
:10199000E80FF91FE851F94F45915491E091060184
:1019A000F0910701408312964D915C9113974F5F20
:1019B0005F4F13965C934E9312972F5F3F4F2630E5
:1019C000310529F7089590E0880F991F880F991F16
:1019D00020E030E0A5E3B2E0F901E80FF91FE45997
:1019E000FA4F45915491E0910601F091070140832F
:1019F00012964D915C9113974F5F5F4F13965C93D6
:101A00004E9312972F5F3F4F2430310529F70895E9
:101A100090E0880F991F880F991F880F991F40E049
:101A200050E0A5E3B2E0FA01E80FF91FEC58FD4FD2
:101A300025913491E0910601F091070120831296DF
:101A40002D913C9113972F5F3F4F13963C932E930C
:101A500012974F5F5F4F20910A0130910B0142179F
:101A600053070CF30895CF92DF92EF92FF920F93FA
:101A70001F93CF93DF93EC017B018C01C12CD12C00
:101A800009C0B701F80181918F010E946E0CFFEF30
:101A9000CF1ADF0AFE0101900020E9F73197EC1B15
:101AA000FD0BCE16DF0668F3DF91CF911F910F91EA
:101AB000FF90EF90DF90CF9008950F931F93CF93F7
:101AC000DF93EC018B01FC0101900020E9F73197D5
:101AD000E81BF90B6E9F90016F9F300D7E9F300DBC
:101AE0001124369527958FE3821B0E94FB0BB801CA
:101AF000CE010E94330DDF91CF911F910F91089578
:101B00000F931F93CF93DF938C0184E190E00E94A9
:101B1000910FEC018EE390E099838883B801CE01A8
:101B20000E948811FE0101900020E9F731978CE3B3
:101B300090E091838083CE01DF91CF911F910F912F
:101B40000895E0910801F09109018EEA8083E09107
:101B50000801F091090181EA8083E0910801F09188
:101B600009018AED8083E0910801F091090182E189
:101B70008083E0910801F091090188EC8083E09175
:101B80000801F091090188EA8083E0910801F09151
:101B900009018FE38083E0910801F091090185ED4F
:101BA0008083E0910801F091090180E88083E09151
:101BB0000801F091090181E88083E0910801F0912A
:101BC000090180E58083E0910801F091090189ED28
:101BD0008083E0910801F091090181E28083E09126
:101BE0000801F091090180E28083E0910801F09101
:101BF000090182E08083E0910801F09109018BEDF9
:101C00008083E0910801F091090180E38083E091F5
:101C10000801F09109018DEA8083E0910801F091BB
:101C200009011082E0910801F091090184EA8083A2
:101C3000E0910801F091090186EA8083E0910801B2
:101C4000F09109018FEA80830E943B0C60E080E004
:101C50000E941C0C089580EB87BB8A9A81E58DB9A0
:101C6000C49AC29A08958FB9779BFECF089585E4F0
:101C70008FB9779BFECF8FB1089583B7846083BF00
:101C800083B7886083BF83B78F7B83BF81B7806C46
:101C900081BF89B7816089BF789408951F920F92A0
:101CA0000FB60F9211242F933F935F936F937F93FF
:101CB0008F939F93AF93BF93209131023091320263
:101CC0002F5F3F4F3093320220933102C9016AE007
:101CD00070E00E94690F892BE9F480912D029091A8
:101CE0002E02019690932E0280932D02C90164E684
:101CF00070E00E94690F892B69F480912F02909106
:101D0000300201969093300280932F0210922E029F
:101D100010922D02BF91AF919F918F917F916F9102
:101D20005F913F912F910F900FBE0F901F901895CC
:101D300090BD89B988E18AB98EE880BD60E070E025
:101D400089EA9EE00E94931108955D9BFECF8CB9B5
:101D500008950E94A50E80E090E0089585B7806800
:101D600085BF80B7806280BF0895FB01F05F8083EC
:101D70000895905FFC0180810895CF93C82FC49887
:101D800083E00E94330E8C2F0E94330E0E94370E88
:101D9000C49ACF910895CF93DF93D82FC62FC498BC
:101DA00082E00E94330E8D2F0E94330E8C2F0E94F2
:101DB000330EC49ADF91CF910895C4980E94330ED8
:101DC000C49A0895C49880EC0E94330EC49A8FE39D
:101DD0009CE90197F1F700C0000008950E942B0EC6
:101DE0000E94E20E8FE39FE10197F1F700C000002F
:101DF0008EE00E94BD0E982F907E903861F01F9269
:101E00008F938AEF91E09F938F930E94DE110F9042
:101E10000F900F900F9008958FE190E00E94980E20
:101E20000E94AE0E0E94A10D0E94100A0E9443065D
:101E30000E94E7060E945F060E943D0E85E08A959B
:101E4000F1F700000E94AB0AF9CFCF93DF93EB01CB
:101E500021971C161D0614F561507048660F771FF8
:101E6000680F791F17C0FC01219131914081518188
:101E70004217530734F4DF0112974D935C9331837B
:101E80002083E617F70781F72197625071096817D9
:101E9000790721F01C161D0634F3F6CFDF91CF91A0
:101EA00008950F931F93CF93DF938C01EB010E9452
:101EB000250F2196CE010AF40196FC01EE7F3297A0
:101EC000E00FF11F80819181DF91CF911F910F91E0
:101ED000089597FB072E16F4009407D077FD09D0DC
:101EE0000E947D0F07FC05D03EF4909581959F4F91
:101EF0000895709561957F4F0895AA1BBB1B51E112
:101F000007C0AA1FBB1FA617B70710F0A61BB70B69
:101F1000881F991F5A95A9F780959095BC01CD010E
:101F200008950F931F93CF93DF938230910510F4A0
:101F300082E090E0E0913D02F0913E0220E030E04E
:101F4000A0E0B0E0309719F1408151810281138106
:101F500048175907C8F08417950769F4109731F0AE
:101F600012960C93129713961C9327C000933D0270
:101F700010933E0222C02115310519F04217530774
:101F800018F49A01BD01EF01DF01F801DBCF211543
:101F90003105F9F0281B390B2430310580F48A8192
:101FA0009B816115710521F0FB019383828304C03D
:101FB00090933E0280933D02FE01329644C0FE01A2
:101FC000E20FF31F819391932250310939832883C3
:101FD0003AC020913B0230913C02232B41F42091E6
:101FE00002013091030130933C0220933B02209187
:101FF0000001309101012115310541F42DB73EB7A3
:102000004091040150910501241B350BE0913B02E6
:10201000F0913C02E217F307A0F42E1B3F0B2817A8
:10202000390778F0AC014E5F5F4F2417350748F051
:102030004E0F5F1F50933C0240933B02819391935C
:1020400002C0E0E0F0E0CF01DF91CF911F910F914E
:102050000895CF93DF93009709F481C0FC01329774
:1020600013821282A0913D02B0913E02109781F43A
:1020700020813181820F931F20913B0230913C02DD
:102080002817390751F5F0933C02E0933B0267C0F3
:10209000ED0120E030E0CE17DF0740F44A815B819C
:1020A0009E0141155105F1F0EA01F5CFD383C283BA
:1020B00040815181840F951FC817D90759F4888131
:1020C0009981840F951F0296918380838A819B81D9
:1020D000938382832115310529F4F0933E02E09326
:1020E0003D023DC0E901FB83EA8349915991C40F48
:1020F000D51FEC17FD0761F480819181840F951F36
:102100000296E90199838883828193819B838A83E4
:10211000E0E0F0E012968D919C911397009719F0F2
:10212000FD01DC01F7CF8D919C9111979D012E5FF0
:102130003F4F820F931F20913B0230913C022817A2
:10214000390769F4309729F410923E0210923D024B
:1021500002C013821282B0933C02A0933B02DF9133
:10216000CF910895A0E0B0E0E8EBF0E10C94AC145E
:10217000EC01009721F4CB010E94910FB4C0FC0147
:10218000E60FF71F9C0122503109E217F30708F40C
:10219000A8C0D9010D911C91119706171707B0F02F
:1021A0000530110508F49BC0C801049786179707EE
:1021B00008F495C002501109061B170B01931193E7
:1021C0006D937C93CF010E94291089C05B01A01AF6
:1021D000B10A4C01800E911EA0913D02B0913E02C9
:1021E000612C712CE12CF12C109709F446C08D91D3
:1021F0009C911197A815B905B1F56C0142E0C40E88
:10220000D11CCA14DB0478F14C018A189B086401C4
:1022100042E0C40ED11C1296BC9012971396AC915A
:10222000B5E0CB16D10440F0B282A38391828082C4
:10223000D9016D937C9309C00E5F1F4F800F911FD2
:10224000F90191838083EB2DFA2FE114F10431F031
:10225000D7011396FC93EE93129741C0F0933E0280
:10226000E0933D023CC06816790608F43C017D010C
:1022700012960D90BC91A02DB7CF80913B0290910A
:102280003C0288169906E1F466167706C8F4809138
:10229000000190910101009741F48DB79EB74091E4
:1022A000040150910501841B950BE817F907C8F448
:1022B000F0933C02E0933B02F901718360830FC00D
:1022C000CB010E94910F7C01009759F0A801BE013B
:1022D0000E947F11CE010E942910C70104C0CE01C7
:1022E00002C080E090E0CDB7DEB7EEE00C94C814F9
:1022F000FB01DC0105900D920020E1F70895FB0140
:10230000DC0102C001900D9241505040D8F7089571
:10231000FB01DC010D900020E9F7119701900D926F
:102320000020E1F708950F931F93CF93DF93009759
:1023300031F46115710519F480E090E03AC08B0129
:10234000EC016EE070E081E090E00E94D513FC01AA
:10235000892B91F380E883830115110571F01387B0
:10236000028781E8838380913F0290914002892B0C
:1023700021F4F0934002E0933F022097C9F0D18707
:10238000C087838182608383809141029091420261
:10239000892B71F4F0934202E09341028091430251
:1023A00090914402892B21F4F0934402E09343027C
:1023B000CF01DF91CF911F910F910895A0E0B0E080
:1023C000E4EEF1E10C94B814AE014B5F5F4FFA01FB
:1023D00061917191AF0180914102909142020E94FE
:1023E000F411E2E00C94D414ABE0B0E0EAEFF1E1D8
:1023F0000C94A8146C017B018A01FC0117821682DF
:10240000838181FFCCC1CE0101963C01F60193810D
:10241000F70193FD859193FF81917F01882309F452
:10242000BAC1853239F493FD859193FF81917F0183
:10243000853229F4B60190E00E940E14E7CF912C6A
:10244000212C312CFFE1F315D8F08B3279F038F4E0
:10245000803279F08332A1F4232D20611DC08D32AA
:1024600061F0803369F4232D216016C0832D8260D2
:10247000382EE32DE4603E2E2AC0F32DF8601DC0F7
:1024800037FC2DC020ED280F2A3040F08E32B9F4F1
:1024900036FC81C1232D2064322E19C036FE06C0C1
:1024A0008AE0989E200D1124922E11C0EAE02E9E03
:1024B000200D1124222EF32DF0623F2E08C08C3601
:1024C00021F4832D8068382E02C0883641F4F7014C
:1024D00093FD859193FF81917F018111B3CF982F57
:1024E0009F7D9554933028F40C5F1F4F9FE3998391
:1024F0000DC0833631F0833771F0833509F059C050
:1025000021C0F801808189830E5F1F4F8824839446
:10251000912C530113C02801F2E04F0E511CF80119
:10252000A080B18036FE03C0692D70E002C06FEF5D
:102530007FEFC5010E9403144C018201F32DFF7748
:102540003F2E16C0280122E0420E511CF801A08047
:10255000B18036FE03C0692D70E002C06FEF7FEFDF
:10256000C5010E94F1134C01F32DF0683F2E82014A
:1025700033FC1BC0822D90E088169906B0F4B6019A
:1025800080E290E00E940E142A94F4CFF50137FC0B
:10259000859137FE81915F01B60190E00E940E1493
:1025A00021102A9421E0821A91088114910471F774
:1025B000E8C0843611F0893641F5F80137FE07C0CE
:1025C00060817181828193810C5F1F4F08C060819F
:1025D0007181072E000C880B990B0E5F1F4FF32D96
:1025E000FF763F2E97FF09C0909580957095619575
:1025F0007F4F8F4F9F4FF0683F2E2AE030E0A301BE
:102600000E944A14882E861845C0853731F4232D40
:102610002F7EB22E2AE030E025C0932D997FB92E6F
:102620008F36C1F018F4883579F0B5C0803719F0CD
:10263000883721F0B0C0E92FE061BE2EB4FE0DC096
:10264000FB2DF460BF2E09C034FE0AC0292F26607E
:10265000B22E06C028E030E005C020E130E002C024
:1026600020E132E0F801B7FE07C06081718182810C
:1026700093810C5F1F4F06C06081718180E090E004
:102680000E5F1F4FA3010E944A14882E8618FB2D4F
:10269000FF773F2E36FE0DC0232D2E7FA22E8914EC
:1026A00058F434FE0BC032FC09C0832D8E7EA82E58
:1026B00005C0B82CA32C03C0B82C01C0B92CA4FEB3
:1026C0000FC0FE01E80DF11D8081803321F49A2DA9
:1026D000997EA92E09C0A2FE06C0B394B39404C08B
:1026E0008A2D867809F0B394A3FC11C0A0FE06C021
:1026F000B21488F4280C922C9B180EC0B21460F40B
:10270000B60180E290E00E940E14B394F7CFB214A9
:1027100018F42B1802C0982C212CA4FE10C0B6016E
:1027200080E390E00E940E14A2FE17C0A1FC03C03B
:1027300088E790E002C088E590E0B6010CC08A2DE1
:10274000867859F0A1FE02C08BE201C080E2A7FCAE
:102750008DE2B60190E00E940E14891438F4B6019F
:1027600080E390E00E940E149A94F7CF8A94F301CC
:10277000E80DF11D8081B60190E00E940E148110D9
:10278000F5CF222009F442CEB60180E290E00E940B
:102790000E142A94F6CFF6018681978102C08FEF3E
:1027A0009FEF2B96E2E10C94C4140F931F93CF93E9
:1027B000DF93869F8001879F100D969F100D112437
:1027C000C8010E94910FEC01009729F0A80160E078
:1027D00070E00E94FC13CE01DF91CF911F910F9109
:1027E0000895FC010590615070400110D8F7809564
:1027F00090958E0F9F1F0895DC0101C06D9341508D
:102800005040E0F70895FC016150704001900110C4
:10281000D8F7809590958E0F9F1F08950F931F9363
:10282000CF93DF93FB01238121FD03C08FEF9FEF47
:102830002CC022FF16C04681578124813581421762
:10284000530744F4A081B1819D012F5F3F4F318335
:1028500020838C93268137812F5F3F4F37832683D8
:1028600014C08B01EC01FB010084F185E02D09957A
:10287000892BE1F6D80116968D919C9117970196B8
:1028800017969C938E931697CE01DF91CF911F914F
:102890000F910895FA01AA27283051F1203181F1D2
:1028A000E8946F936E7F6E5F7F4F8F4F9F4FAF4F58
:1028B000B1E03ED0B4E03CD0670F781F891F9A1F6B
:1028C000A11D680F791F8A1F911DA11D6A0F711D1F
:1028D000811D911DA11D20D009F468943F912AE02B
:1028E000269F11243019305D3193DEF6CF01089513
:1028F000462F4770405D4193B3E00FD0C9F7F6CF44
:10290000462F4F70405D4A3318F0495D31FD40520B
:10291000419302D0A9F7EACFB4E0A69597958795A1
:1029200077956795BA95C9F7009761057105089580
:102930009B01AC010A2E069457954795379527952C
:10294000BA95C9F7620F731F841F951FA01D0895C4
:102950002F923F924F925F926F927F928F929F92AF
:10296000AF92BF92CF92DF92EF92FF920F931F939D
:10297000CF93DF93CDB7DEB7CA1BDB0B0FB6F8944E
:10298000DEBF0FBECDBF09942A88398848885F848E
:102990006E847D848C849B84AA84B984C884DF80FF
:1029A000EE80FD800C811B81AA81B981CE0FD11DE3
:1029B0000FB6F894DEBF0FBECDBFED010895F894B9
:0229C000FFCF47
:1029C2000000450220000012001008004D657373DC
:1029D200616765206964202578200D0A004D6573C2
:1029E20073616765206C656E6774683A202578208C
:1029F2000D0A004D657373616765206C656E6774BF
:102A0200683A202578004D657373616765206461BB
:102A120074613A2025780043414E20494E54455274
:102A22005255505400427574746F6E2076616C7505
:102A3200653A202564200A0D004A4F5953544961D2
:102A420064617364617361736454004D61696E20E3
:102A52004D656E750031504C415945520032504C13
:102A62004159455200434F4E54524F4C4C4552002F
:102A72004A4F59535449434B00534C494445520021
:102A820043414C49425241544500627574746F6E21
:102A920020707265737365640064656E6E65207084
:102AA2006F7369736A6F6E656E20656B7369737499
:102AB2006572657220696B6B65004E6F7420696E7A
:102AC20020636F6E666967206D6F6465206166744E
:102AD2006572207265736574212076616C75653A42
:082AE200202578200A0D0000F8
:00000001FF
