S01400004279676765726E4E6F6465322E737265638A
S2140800000009002001040800FD030800FD0308009D
S214080010FD030800FD030800FD03080000000000BB
S214080020000000000000000000000000FD030800BB
S214080030FD03080000000000FD030800B10D0800DD
S214080040FD030800FD030800FD030800C1070800BB
S214080050FD030800FD030800FD030800FD03080073
S214080060A10E0800FD03080000000000FD030800BC
S214080070FD030800FD030800FD030800000000005B
S21408008000000000FD030800FD030800FD0308004B
S214080090FD030800FD030800FD030800FD03080033
S2140800A0FD03080000000000FD030800FD0308002B
S2140800B0FD030800FD030800FD030800FD03080013
S2140800C0FD030800FD030800FD030800FD03080003
S2140800D0FD030800FD030800FD030800FD030800F3
S2140800E0FD030800FD030800FD030800710308006F
S2140800F0FD03080010B5054C237833B9044B13B13B
S2140801000448AFF300800123237010BD5C04002070
S21408011000000000FC1908000C4B43B10C4810B551
S2140801200C49AFF300800C48036823B910BD0A4891
S214080130036833B97047094B002BF7D0BDE8104069
S2140801401847064B002BF5D0184700BF00000000E4
S214080150FC19080060040020FC19080000000000D4
S2140801602DE9F0435518082998BF082A64D80E4682
S214080170082D61DC324A136823F001031360136903
S214080180304B4FF440745C641C6F24F003041C6707
S21408019003245C605C66A3F500632B4CC3F80C4133
S2140801A0D3F8004144F40064C3F800415061A94202
S2140801B040DC0A460024A146DFF884804FF0005C45
S2140801C04FF0807E0127530103F1402000F53020D0
S2140801D0C0F804924344C3F808C2C0F800E2D3F853
S2140801E01C0240F40000C3F81C0207FA02F31C4382
S2140801F001329542E7DA81B1002311494FF00055E4
S2140802004FF0407001EB4312C2F8085203F1100297
S2140802105201885001339E42F4D1094B5C604FF47A
S21408022000610A4A51601A6842F001021A6000200A
S214080230BDE8F0830024DEE70120BDE8F08300BFB8
S21408024000400B40000E0E402B10001000E100E0AE
S21408025008B502220121014B984708BD6101080034
S2140802604B0103F1402303F53023D3F8103213F47F
S214080270000F36D003881C4A02EA834242F0005236
S2140802804B0103F1402303F53023C3F80822837893
S214080290072B84BF07238370827943791B0443EABC
S2140802A00263C2781343027943EA0223490101F143
S2140802B0402101F53021C1F81432827A437A1B04B2
S2140802C043EA0263C2791343027A43EA0223C1F877
S2140802D0183283781B0443F40003C1F81C3200204C
S2140802E070470120704700BF0000FC1F4B0103F158
S2140802F0402303F53023D3F8103213F4000F33D01D
S21408030030B44B0103F1402303F53023D3F814220D
S214080310D3F81842D3F80852C5F38A450580D3F8AF
S2140803201032C3F3034383701D465BB103300023CA
S214080330032BD9BF0270120A0470240A0133013055
S214080340AB42F5D1094B01F1100252014FF0807013
S214080350985003EB4111D1F81C3243F40003C1F85E
S2140803601C32002030BC70470120704700400B400C
S21408037030B585B01A4B1C6914F0060F1AD014F065
S214080380020F24D114F0040F26D0022101A8154B21
S21408039098479DF806201AB1002301339342FCD1F2
S2140803A004AD012325F80C3D28460F4B98472846F0
S2140803B00E4B984714F0010F02D00122084B9A60A2
S2140803C04FF400620A4BC3F8842105B030BD012102
S2140803D001A8044B9847DCE70648074B9847D8E738
S2140803E000400B40ED020800B5080800D1080800D8
S2140803F000E100E09C1808008D0D0800FEE70000EC
S21408040008B5184B184A9A4210D0184B154A9A4203
S2140804100CD2013B9B1A23F00303043313441249FE
S21408042051F8040B42F8040B9A42F9D1104B114AC2
S2140804309A420AD2013B9B1A23F00303043313445F
S214080440002142F8041B9342FBD10B4B23F0604378
S21408045023F07F03094A9360094B9847094B98474E
S214080460FEE700BF00000020FC1908005C0400201E
S214080470000500205C0400200000080000ED00E0F5
S2140804802D1708000D0A08004FF48063204A1360F1
S21408049002F5007213601F4B1B6A13F0807F07D1AA
S2140804A01D4A1C4B1A621A46936E13F0010FFBD0B6
S2140804B01A4A184B1A621A46936E13F4803FFBD0FA
S2140804C0144A136B23F0030343F001031363936E7C
S2140804D013F0080FFBD0124A0E4B9A621A46936E18
S2140804E013F0020FFBD011220A4B1A631A46936EBA
S2140804F013F0080FFBD01222064B1A631A46936EA7
S21408050013F0080FFBD0074A074B1A60704700BF66
S214080510000A0E4000060E40090837000908370191
S214080520013F0D2000BD01050000002010B4304931
S2140805300B6843F000630B602E4B1A6842F001020A
S2140805401A601A6842F002021A601A6842F0040238
S2140805501A601A6842F400721A601A6842F48062D6
S2140805601A60254A106840F002001060106840F0D3
S21408057004001060106840F008001060106840F032
S21408058010001060106840F020001060106840F0FE
S21408059040001060106840F080001060106840F45A
S2140805A080701060154C206940F400502061506936
S2140805B040F4FF7050610A6942F000620A611A69E5
S2140805C042F4C06242F007021A611A6B42F40072E3
S2140805D01A631A6B42F480621A635A6B42F001027D
S2140805E05A631A6B42F002021A6310BC704700BFC7
S2140805F000100E4000140E4000120E4000060E407A
S214080600084A136843F040031360074B1A681A60D9
S2140806101A6842F480321A60044A136843F00203E8
S2140806201360704700070E4004800C4010800C4092
S214080630074A536B43F0020353634FF4FA63013BD4
S214080640FDD1034A136B43F002031363704700BFE0
S21408065000140E4038B5144B5A6B42F001025A6328
S2140806605A6B42F004025A634FF4FA63013BFDD119
S2140806700E4BDD6B6DB20C4A136B43F00403136329
S2140806804FF4FA63013BFDD1084BDC6B64B240B90A
S214080690054A136B43F001031363E0B240EA0520F2
S2140806A038BD034B9847F3E700140E4000120E407F
S2140806B03106080070B10A4A136B43F4806313636B
S2140806C021EAE171B1F5FA6FA8BF4FF4FA61054B5C
S2140806D019607047024A536B43F480635363EFE72D
S2140806E000140E4020800C4008B500210846014B37
S2140806F0984708BDB50608002DE9F8430020144BB6
S214080700984780460025134FDFF84490124C4FF464
S214080710487631462846B847013CFAD12846C847A5
S2140807200446024641460D480D4B9847444501D0BD
S214080730A046EBE70B4B98470B4B98470020044B1B
S214080740984701460948064B9847BDE8F88300BF16
S21408075055060800B5060800A0860100F41808002B
S2140807608D0D0800E9060800310608000C19080077
S21408077010B508220C4B1A6000220C4B0C49D1E924
S21408078000010C4CA0470C4B9847C0B200EB401039
S2140807900A4B00221A601A68104318601A6842F456
S2140807A000321A6010BD00BF00E100E000408F4034
S2140807B00800002079120800ED160800301A0E40CE
S2140807C02DE9F04F85B000202F4B98472F4B1C681B
S2140807D0241A2F4F3B6804EB030BC7F800B0DFF86A
S2140807E0C4A0DAE90023104619462A4EDAE902239D
S2140807F0CDE90001B04780468946274D5846A847A8
S21408080002460B4640464946B047DFF89CB0D847F4
S214080810A847CDE902012046A847DAE90423B047ED
S214080820DFF8889002460B46DDE90201C847CDE9A5
S2140808300201DDE90023DAE90601DFF87480C04723
S214080840CDE900017868201AA84702460B46DDE97C
S2140808500001B047D847A84702460B46DDE9020123
S214080860C847D847011E0CDB0029D4BF002001204A
S2140808700A4B9847064B5C60094B1B6805B0BDE8F9
S214080880F08F49420020F3E755060800940400203C
S2140808907804002079120800AD110800B506080093
S2140808A03C1A0E40080000209D160800150F080088
S2140808B0CD14080090F90330C3F16402BE2303FB8D
S2140808C002F35B10014A1360704700BF94040020CF
S2140808D090F90430C3F16402BE2303FB02F35B10F5
S2140808E0014A1360704700BF94040020184A136832
S2140808F043F010031360174B1A6F42F480221A67EE
S2140809005A6842F480225A60134A136843F428133C
S2140809101360124B1A6842F480721A601A6842F022
S2140809200C021A601A6842F400721A600C4A1368BD
S214080930002111600B4B1868196044F6206111609D
S21408094040F2DC521A604022A3F530731A607047F2
S21408095000070E4000120E4000400940C042094001
S214080960CC420940C44209400B4A136843F02003AE
S2140809701360A2F50132A2F53C72136843F0010336
S21408098013600C3A136843F080031360043A136844
S21408099043F002031360704700070E4030B585B079
S2140809A0144B1C68B4F57A7F03DA134B1B68012BCB
S2140809B00AD0B4F57A6F05DD0F4B1B6813B9012210
S2140809C00D4B1A6005B030BD0C4B19680131196023
S2140809D00025094B1D600A480A4B9847ADF8045095
S2140809E001238DF806308DF80730294601A8064BF6
S2140809F09847DEE750000C402800002080040020BE
S214080A00441908008D0D08006102080000B583B07F
S214080A101D4B1A6842F400221A601A6942F4002232
S214080A201A611A6B42F400221A631A6842F480129A
S214080A301A601A6942F480121A611A6B42F480121C
S214080A401A63124B9847124A536843F4004353609C
S214080A50104B98471048114B9847114B9847114B25
S214080A609847114B9847114B9847114B9847114B8D
S214080A709847114B9847114B98470025104C0195FD
S214080A8001A8A047FBE700BF000E0E408904080037
S214080A90501A0E40150E080061052900510208007C
S214080AA0ED080800690908002D0508000106080079
S214080AB0E906080031060800F9060800710708006C
S214080AC09D0908002DE9F8430D46161E48DD0A78EC
S214080AD0002A35D00A460024013412F8011F0029DE
S214080AE0FAD1A6422DDC002403F00202002A0CBF2D
S214080AF04FF020084FF0300813F0010323D1002CE4
S214080B0028DD26465FFA88F9184F4846B847013E5A
S214080B10FBD1287888B1154FB847013415F8010F6E
S214080B200028F9D1002E08DD35465FFA88F80F4F01
S214080B304046B847013DFBD134442046BDE8F8831B
S214080B400024341BD0E72646287808B10024E2E7BC
S214080B500024E7E726461C46DBE74FF02008D8E7E0
S214080B6013F00104F9D04FF02008EDE77D0E0800D9
S214080B70F0B585B0074681B30C460BB10A2A38D0C3
S214080B8000238DF80F300026002946D00DF10F05FA
S214080B900C993A39B4FBF2F302FB1343092BC8BF8E
S214080BA05B18303305F8013DB4FBF2F4002CF1D1A4
S214080BB056B10A9B1BB10B9B13F0020F25D12D23B0
S214080BC005F8013C013D00260B9B0A9A2946384643
S214080BD0144CA047304405B0F0BD30238DF80430DF
S214080BE000238DF805300B9B0A9A01A90D4CA047E7
S214080BF0F1E70029C4DA4C4200238DF80F300DF1D6
S214080C000F05002CD5D00126C0E72D20064B9847A7
S214080C100A9B013B0A930126D6E71E460DF10F05EF
S214080C20D2E700BFC50A08007D0E08002DE9F04F80
S214080C3087B080460B78002B00F094808B461746CA
S214080C4000254E4EDFF83CA1DFF83C9146E0002236
S214080C5070E0396804374A48002908BF014640460C
S214080C60D047054435E0396804376120029001937F
S214080C70009201230A224046C847054429E03968FD
S214080C800437612002900193009200231022404608
S214080C90C84705441DE0396804374120029001938F
S214080CA00092002310224046C847054411E03968E0
S214080CB00437612002900193009200230A224046DE
S214080CC0C847054405E0A3469BF80000B047013531
S214080CD05C4604F1010B6378002B44D0252BF3D136
S214080CE00BF101049BF80130002B3CD0252BEAD0F1
S214080CF02D2B06BF0BF10204012300232278302A8D
S214080D0005D143F0020314F8012F302AF9D02178D0
S214080D10A1F13002D2B2092A99D8002202EB820247
S214080D20303901EB420214F8011FA1F13000C0B2BD
S214080D300928F3D973298CD0642994D078299ED0B1
S214080D405829A8D07529B2D06329C2D13968043782
S214080D508DF8141000218DF8151005A94046D047C7
S214080D600544B6E70025B8F1000F03D0D8F80030E0
S214080D7000221A70284607B0BDE8F08F7D0E0800DE
S214080D8058190800C50A0800710B08000FB400B50A
S214080D9083B004AA52F8041B01920020034B98471C
S214080DA003B05DF804EB04B0704700BF2D0C0800D4
S214080DB038B5124B1968013119605B6899420BD037
S214080DC00F4A82FB0132CB17C3EBA2134FF47A7299
S214080DD002FB131323B138BD0122084B1A72EFE742
S214080DE0064CE3680133E3600648074DA847217AB6
S214080DF00648A847E1680648A847ECE784040020A8
S214080E00D34D6210601908008D0D08006C19080093
S214080E107C190800164B00221A705A70154B4FF4AE
S214080E204071596459601A6F186F024022F4407274
S214080E301A6759664FF48072A3F500631A6103F5C2
S214080E400073AC21196040F2232119624FF4006147
S214080E50596040F20221C3F820114FF0FF31D960E3
S214080E60E121996004490A6050221A60704700BF61
S214080E7098040020000E0E4000E100E0074B5B6976
S214080E8013F0020F08D0054BD8611A46536913F4BD
S214080E90007FFBD0002070470120704700080E40F6
S214080EA008B5154B5B6913F0E00F03D04FF4A87133
S214080EB0114A116013F0010F12D010484278531CE3
S214080EC0594203F03F0301F03F0158BF4B420178F7
S214080ED08B4206D00849886908490A4490704B70C6
S214080EE008BD0748074B9847034B9A69034B597840
S214080EF00B449A7008BD00BF00080E4098040020F6
S214080F00B41908008D0D080081F0004102E000BF0A
S214080F1083F0004330B54FEA41044FEA430594EAAC
S214080F20050F08BF90EA020F1FBF54EA000C55EAE7
S214080F30020C7FEA645C7FEA655C00F0E2804FEAB8
S214080F405454D4EB5555B8BF6D420CDD2C4480EA9A
S214080F50020281EA030382EA000083EA010180EACA
S214080F60020281EA0303362D88BF30BD11F0004F18
S214080F704FEA01314FF4801C4CEA113102D040424E
S214080F8061EB410113F0004F4FEA03334CEA133389
S214080F9002D0524263EB430394EA050F00F0A780A1
S214080FA0A4F10104D5F1200E0DDB02FA0EFC22FA9C
S214080FB005F2801841F1000103FA0EF2801843FA90
S214080FC005F359410EE0A5F120050EF1200E012A81
S214080FD003FA0EFC28BF4CF0020C43FA05F3C018BF
S214080FE051EBE37101F0004507D54FF0000EDCF138
S214080FF0000C7EEB00006EEB0101B1F5801F1BD3E1
S214081000B1F5001F0CD349085FEA30004FEA3C0CE4
S21408101004F101044FEA445212F5800F80F09A80DA
S214081020BCF1004F08BF5FEA500C50F1000041EBDE
S214081030045141EA050130BD5FEA4C0C404141EBE2
S214081040010111F4801FA4F10104E9D191F0000F09
S21408105004BF01460020B1FA81F308BF2033A3F18C
S2140810600B03B3F120020CDA0C3208DD02F1140C83
S214081070C2F10C0201FA0CF021FA02F10CE002F1BE
S2140810801402D8BFC2F1200C01FA02F120FA0CFCB7
S214081090DCBF41EA0C019040E41AA2BF01EB045100
S2140810A0294330BD6FEA04041F3C1CDA0C340EDCFE
S2140810B004F11404C4F1200220FA04F001FA02F341
S2140810C040EA030021FA04F345EA030130BDC4F1FF
S2140810D00C04C4F1200220FA02F001FA04F340EAF4
S2140810E00300294630BD21FA04F0294630BD94F0A5
S2140810F0000F83F4801306BF81F480110134013D8C
S2140811004EE77FEA645C18BF7FEA655C29D094EAFC
S214081110050F08BF90EA020F05D054EA000C04BF7A
S2140811201946104630BD91EA030F1EBF0021002065
S21408113030BD5FEA545C05D14000494128BF41F004
S214081140004130BD14F580043CBF01F5801130BD68
S21408115001F0004545F0FE4141F470014FF00000F3
S21408116030BD7FEA645C1ABF194610467FEA655CA4
S2140811701CBF0B46024650EA013406BF52EA033546
S21408118091EA030F41F4002130BD00BF90F0000F34
S21408119004BF0021704730B54FF4806404F1320470
S2140811A04FF000054FF0000150E700BF90F0000F29
S2140811B004BF0021704730B54FF4806404F1320450
S2140811C010F0004548BF40424FF000013EE700BF20
S2140811D042004FEAE2014FEA31014FEA02701FBFB0
S2140811E012F07F4393F07F4F81F06051704792F082
S2140811F0000F14BF93F07F4F704730B54FF46074FC
S21408120001F0004521F0004120E700BF50EA010246
S21408121008BF704730B54FF000050AE050EA0102F3
S21408122008BF704730B511F0004502D5404261EB63
S21408123041014FF4806404F132045FEA915C3FF4A4
S214081240DCAE4FF003025FEADC0C18BF03325FEA3D
S214081250DC0C18BF033202EBDC02C2F1200300FAF2
S21408126003FC20FA02F001FA03FE40EA0E0021FA17
S21408127002F11444C1E600BF70B54FF0FF0C4CF401
S214081280E06C1CEA11541DBF1CEA135594EA0C0FB7
S21408129095EA0C0F00F0DEF82C4481EA030621EAF2
S2140812A04C5123EA4C5350EA013518BF52EA03352D
S2140812B041F4801143F4801338D0A0FB02CE4FF0DF
S2140812C00005E1FB02E506F00042E0FB03E54FF00F
S2140812D00006E1FB03569CF0000F18BF4EF0010E07
S2140812E0A4F1FF04B6F5007F64F5407404D25FEA03
S2140812F04E0E6D4146EB060642EAC62141EA5551B6
S2140813004FEAC52040EA5E504FEACE2EB4F1FD0CF7
S21408131088BFBCF5E06F1ED8BEF1004F08BF5FEA75
S214081320500E50F1000041EB045170BD06F0004627
S21408133046EA010140EA020081EA0301B4EB5C04D4
S214081340C2BFD4EB0C0541EA045170BD41F48011CC
S2140813504FF0000E013C00F3AB8014F1360FDEBFF1
S214081360002001F0004170BDC4F10004203C35DACD
S2140813700C341BDC04F11404C4F1200500FA05F350
S21408138020FA04F001FA05F240EA020001F00042F1
S21408139021F0004110EBD37021FA04F642EB060167
S2140813A05EEA430E08BF20EAD37070BDC4F10C0491
S2140813B0C4F1200500FA04F320FA05F001FA04F255
S2140813C040EA020001F0004110EBD37041F1000141
S2140813D05EEA430E08BF20EAD37070BDC4F120054C
S2140813E000FA05F24EEA020E20FA04F301FA05F2B4
S2140813F043EA020321FA04F001F0004121FA04F25C
S21408140020EA020000EBD3705EEA430E08BF20EA2B
S214081410D37070BD94F0000F0FD101F00046400065
S21408142041EB010111F4801F08BF013CF7D041EAE7
S214081430060195F0000F18BF704703F000465200EB
S21408144043EB030313F4801F08BF013DF7D043EABC
S2140814500603704794EA0C0F0CEA135518BF95EA72
S2140814600C0F0CD050EA410618BF52EA4306D1D1F9
S21408147081EA030101F000414FF0000070BD50EA18
S214081480410606BF1046194652EA430619D094EAA2
S2140814900C0F02D150EA013613D195EA0C0F05D18C
S2140814A052EA03361CBF104619460AD181EA0301E0
S2140814B001F0004141F0FE4141F470014FF0000098
S2140814C070BD41F0FE4141F4780170BD70B54FF033
S2140814D0FF0C4CF4E06C1CEA11541DBF1CEA1355B3
S2140814E094EA0C0F95EA0C0F00F0A7F8A4EB050495
S2140814F081EA030E52EA03354FEA013100F088808C
S2140815004FEA03334FF0805545EA131343EA126354
S2140815104FEA022245EA111545EA10654FEA002609
S2140815200EF000419D4208BF964244F1FD0404F5C2
S214081530407402D25B084FEA3202B61A65EB03051E
S2140815405B084FEA32024FF480104FF4002CB6EBDB
S214081550020E75EB030E22BFB61A754640EA0C005B
S2140815605B084FEA3202B6EB020E75EB030E22BF9B
S214081570B61A754640EA5C005B084FEA3202B6EBDC
S214081580020E75EB030E22BFB61A754640EA9C009B
S2140815905B084FEA3202B6EB020E75EB030E22BF6B
S2140815A0B61A754640EADC0055EA060E18D04FEA29
S2140815B0051545EA16754FEA06164FEAC30343EAC9
S2140815C052734FEAC2025FEA1C1CC0D111F4801F96
S2140815D00BD141EA00014FF000004FF0004CB6E78F
S2140815E011F4801F04BF01430020B4F1FD0C88BF2E
S2140815F0BCF5E06F3FF6AFAEB5EB030C04BFB6EB39
S214081600020C5FEA500C50F1000041EB045170BD2B
S2140816100EF0004E4EEA113114EB5C04C2BFD4EB58
S2140816200C0541EA045170BD41F480114FF0000EDC
S214081630013C90E645EA060E8DE60CEA135594EA58
S2140816400C0F08BF95EA0C0F3FF43BAF94EA0C0F5B
S2140816500AD150EA01347FF434AF95EA0C0F7FF4D0
S21408166025AF104619462CE795EA0C0F06D152EA24
S21408167003353FF4FDAE1046194622E750EA410608
S21408168018BF52EA43067FF4C5AE50EA41047FF419
S2140816900DAF52EA43057FF4EBAE12E74FEA41027C
S2140816A012F5001215D211D56FF47873B3EB6252A7
S2140816B012D94FEAC12343F0004343EA505311F0CE
S2140816C0004F23FA02F018BF404270474FF0000060
S2140816D0704750EA013005D111F0004008BF6FF09E
S2140816E0004070474FF00000704700BF4A0011D214
S2140816F012F5001211D20DD56FF47873B3EB62525F
S2140817000ED44FEAC12343F0004343EA505323FA6A
S21408171002F070474FF00000704750EA013002D1DF
S2140817204FF0FF3070474FF00000704770B50F4E0F
S2140817300F4D761BB61018BF002405D0013455F897
S214081740043B9847A642F9D10A4E0B4D00F044F9DF
S214081750761BB61018BF002406D0013455F8043B93
S2140817609847A642F9D170BD70BD00BFE4190800BD
S214081770E4190800EC190800E4190800024B13B134
S214081780024800F005B87047000000009D170800E2
S214081790002301461A46184600F01EB838B50A4C0B
S2140817A00A4D641BA4100AD004F18043013B05EBE4
S2140817B08305013C55F804399847002CF9D1BDE853
S2140817C0384000F013B900BFFC190800F8190800E3
S2140817D0704700BF704700BF2DE9F8432C4D0646FA
S2140817E0286898460F469146FFF7F2FF294B1C6873
S2140817F0D4F84831002B3ED05A681F2A1CDC02F168
S214081800010E76B1012103EB8204C4F88890D3F860
S214081810880191400843022EC3F88801C4F808815D
S21408182023D00232C3F804E0286843F82270FFF792
S214081830D1FF0020BDE8F883174B0BB34FF4C870F0
S214081840AFF300800346D8B10020D4F848114FF013
S214081850010E586019600246C4F84831C3F888017A
S214081860C3F88C01002EDCD0CCE7D3F88C010143FA
S214081870C3F88C11D5E704F5A673C4F84831BBE75E
S2140818802868FFF7A7FF4FF0FF30BDE8F88300BFD2
S21408189058040020D41908000000000043414E30C8
S2140818A0206D657373616765206172726976656419
S2140818B020696E206E6F6E2D75736564206D616984
S2140818C06C626F780A0D000043616C69627261741D
S2140818D0696F6E2066696E69736865642C20706F20
S2140818E0736974696F6E2076616C75653A20256435
S2140818F00000000070726576506F733A2025642CDD
S21408190020706F733A202564200A0D0043616C69C5
S21408191062726174696F6E20646F6E652C20506FFA
S214081920736974696F6E202564200A0D0000000034
S2140819306164632076616C75653A202564200A0D1B
S21408194000000000476F616C20436F756E743A2084
S2140819502564200A0D000000286E756C6C290000AE
S214081960636F756E7465723A2025640062757379C4
S214081970776169743A202564000000005365636F38
S2140819806E64733A202564200A0D000054696D655C
S2140819907220737461727465642E2E2E200A0D00F0
S2140819A02E2E2E54696D65722073746F7070656480
S2140819B00A0D00004552523A2055415254205258BA
S2140819C0206275666665722069732066756C6C0A97
S2140819D00D00000030000020F8B500BFF8BC08BCB9
S2140819E09E4670477D17080019010800F8B500BF25
S2100819F0F8BC08BC9E467047F5000800CE
S2140819FC00093D00000000007B14AE47E17A843FE6
S214081A0C000000000000E03F000000000000F03F6F
S214081A1C7B14AE47E17A843F01000000000000000A
S214081A2C000000001C03002084030020EC030020A8
S214081A3C000000000000000000000000000000008D
S214081A4C000000000000000000000000000000007D
S214081A5C000000000000000000000000000000006D
S214081A6C000000000000000000000000000000005D
S214081A7C000000000000000000000000000000004D
S214081A8C000000000000000000000000000000003D
S214081A9C000000000000000000000000000000002D
S214081AAC000000000000000000000000000000001D
S214081ABC000000000000000000000000000000000D
S214081ACC00000000000000000100000000000000FC
S214081ADC0E33CDAB34126DE6ECDE05000B000000C1
S214081AEC00000000000000000000000000000000DD
S214081AFC00000000000000000000000000000000CD
S214081B0C00000000000000000000000000000000BC
S214081B1C00000000000000000000000000000000AC
S210081E4C0000000000000000DC0400207D
S804080000F3
